{
  "transactions": [
    {
      "hash": "0x6136fdc9dd4371b1b21086b57e8c1e127b295a8e63af1a07c7500f985684bfba",
      "transactionType": "CALL",
      "contractName": null,
      "contractAddress": "0x2add1065570c3847716aa9c52df81a5e56172055",
      "function": "approve(address,uint256)",
      "arguments": [
        "0x000000000022D473030F116dDEE9F6B43aC78BA3",
        "115792089237316195423570985008687907853269984665640564039457584007913129639935"
      ],
      "transaction": {
        "from": "0x000000d437ec79d30887af214894f77b968b3ef9",
        "to": "0x2add1065570c3847716aa9c52df81a5e56172055",
        "gas": "0x10a53",
        "value": "0x0",
        "input": "0x095ea7b3000000000000000000000000000000000022d473030f116ddee9f6b43ac78ba3ffffffffffffffffffffffffffffffffffffffffffffffffffffffffffffffff",
        "nonce": "0x28",
        "chainId": "0x2105"
      },
      "additionalContracts": [],
      "isFixedGasLimit": false
    },
    {
      "hash": "0x75f069c025c58b348995bd572008b32264dd78ee926f0002934273d27d15d9dd",
      "transactionType": "CALL",
      "contractName": null,
      "contractAddress": "0x000000000022d473030f116ddee9f6b43ac78ba3",
      "function": "approve(address,address,uint160,uint48)",
      "arguments": [
        "0x2Add1065570c3847716aA9C52DF81A5E56172055",
        "0x7C5f5A4bBd8fD63184577525326123B519429bDc",
        "1461501637330902918203684832716283019655932542975",
        "281474976710655"
      ],
      "transaction": {
        "from": "0x000000d437ec79d30887af214894f77b968b3ef9",
        "to": "0x000000000022d473030f116ddee9f6b43ac78ba3",
        "gas": "0x1112d",
        "value": "0x0",
        "input": "0x87517c450000000000000000000000002add1065570c3847716aa9c52df81a5e561720550000000000000000000000007c5f5a4bbd8fd63184577525326123b519429bdc000000000000000000000000ffffffffffffffffffffffffffffffffffffffff0000000000000000000000000000000000000000000000000000ffffffffffff",
        "nonce": "0x29",
        "chainId": "0x2105"
      },
      "additionalContracts": [],
      "isFixedGasLimit": false
    },
    {
      "hash": "0x67ba2c80fb01d1697de0fd9f413ddddf0c32c75e4211b88bfa97c29abdf4e3dd",
      "transactionType": "CALL",
      "contractName": null,
      "contractAddress": "0x833589fcd6edb6e08f4c7c32d4f71b54bda02913",
      "function": "approve(address,uint256)",
      "arguments": [
        "0x000000000022D473030F116dDEE9F6B43aC78BA3",
        "115792089237316195423570985008687907853269984665640564039457584007913129639935"
      ],
      "transaction": {
        "from": "0x000000d437ec79d30887af214894f77b968b3ef9",
        "to": "0x833589fcd6edb6e08f4c7c32d4f71b54bda02913",
        "gas": "0xdca8",
        "value": "0x0",
        "input": "0x095ea7b3000000000000000000000000000000000022d473030f116ddee9f6b43ac78ba3ffffffffffffffffffffffffffffffffffffffffffffffffffffffffffffffff",
        "nonce": "0x2a",
        "chainId": "0x2105"
      },
      "additionalContracts": [],
      "isFixedGasLimit": false
    },
    {
      "hash": "0xfb7ea6318a50ba0ab107c50d4ce5ca0434358f8ca61b6a8d2492bd3c49e22d60",
      "transactionType": "CALL",
      "contractName": null,
      "contractAddress": "0x000000000022d473030f116ddee9f6b43ac78ba3",
      "function": "approve(address,address,uint160,uint48)",
      "arguments": [
        "0x833589fCD6eDb6E08f4c7C32D4f71b54bdA02913",
        "0x7C5f5A4bBd8fD63184577525326123B519429bDc",
        "1461501637330902918203684832716283019655932542975",
        "281474976710655"
      ],
      "transaction": {
        "from": "0x000000d437ec79d30887af214894f77b968b3ef9",
        "to": "0x000000000022d473030f116ddee9f6b43ac78ba3",
        "gas": "0x96a0",
        "value": "0x0",
        "input": "0x87517c45000000000000000000000000833589fcd6edb6e08f4c7c32d4f71b54bda029130000000000000000000000007c5f5a4bbd8fd63184577525326123b519429bdc000000000000000000000000ffffffffffffffffffffffffffffffffffffffff0000000000000000000000000000000000000000000000000000ffffffffffff",
        "nonce": "0x2b",
        "chainId": "0x2105"
      },
      "additionalContracts": [],
      "isFixedGasLimit": false
    },
    {
      "hash": "0x7d214d70c123addae9b83dab569945079d23849710364ac20b600156df775fc7",
      "transactionType": "CALL",
      "contractName": null,
      "contractAddress": "0x7c5f5a4bbd8fd63184577525326123b519429bdc",
      "function": "multicall(bytes[])",
      "arguments": [
        "[0xf70204050000000000000000000000002add1065570c3847716aa9c52df81a5e56172055000000000000000000000000833589fcd6edb6e08f4c7c32d4f71b54bda029130000000000000000000000000000000000000000000000000000000000002710000000000000000000000000000000000000000000000000000000000000003c0000000000000000000000008f79b9131d74b32642868fb4593da678029180cc000000000000000000000000000000000000000000000087d19c4eb75a00000000000000000000000000000000000000000000000000000000000000000000e00000000000000000000000000000000000000000000000000000000000000000, 0xdd46508f00000000000000000000000000000000000000000000000000000000000000400000000000000000000000000000000000000000000000000000000068d363d30000000000000000000000000000000000000000000000000000000000000300000000000000000000000000000000000000000000000000000000000000004000000000000000000000000000000000000000000000000000000000000000800000000000000000000000000000000000000000000000000000000000000002020d00000000000000000000000000000000000000000000000000000000000000000000000000000000000000000000000000000000000000000000000000020000000000000000000000000000000000000000000000000000000000000040000000000000000000000000000000000000000000000000000000000000020000000000000000000000000000000000000000000000000000000000000001a00000000000000000000000002add1065570c3847716aa9c52df81a5e56172055000000000000000000000000833589fcd6edb6e08f4c7c32d4f71b54bda029130000000000000000000000000000000000000000000000000000000000002710000000000000000000000000000000000000000000000000000000000000003c0000000000000000000000008f79b9131d74b32642868fb4593da678029180ccfffffffffffffffffffffffffffffffffffffffffffffffffffffffffff2764c00000000000000000000000000000000000000000000000000000000000d89b400000000000000000000000000000000000000000000000000001cc2c05dbc5300000000000000000000000000000000000000000000003635c9adc5dea0000100000000000000000000000000000000000000000000000000000000000f4241000000000000000000000000000000d437ec79d30887af214894f77b968b3ef90000000000000000000000000000000000000000000000000000000000000180000000000000000000000000000000000000000000000000000000000000000000000000000000000000000000000000000000000000000000000000000000400000000000000000000000002add1065570c3847716aa9c52df81a5e56172055000000000000000000000000833589fcd6edb6e08f4c7c32d4f71b54bda02913]"
      ],
      "transaction": {
        "from": "0x000000d437ec79d30887af214894f77b968b3ef9",
        "to": "0x7c5f5a4bbd8fd63184577525326123b519429bdc",
        "gas": "0xa1341",
        "value": "0x0",
        "input": "0xac9650d800000000000000000000000000000000000000000000000000000000000000200000000000000000000000000000000000000000000000000000000000000002000000000000000000000000000000000000000000000000000000000000004000000000000000000000000000000000000000000000000000000000000001800000000000000000000000000000000000000000000000000000000000000104f70204050000000000000000000000002add1065570c3847716aa9c52df81a5e56172055000000000000000000000000833589fcd6edb6e08f4c7c32d4f71b54bda029130000000000000000000000000000000000000000000000000000000000002710000000000000000000000000000000000000000000000000000000000000003c0000000000000000000000008f79b9131d74b32642868fb4593da678029180cc000000000000000000000000000000000000000000000087d19c4eb75a00000000000000000000000000000000000000000000000000000000000000000000e00000000000000000000000000000000000000000000000000000000000000000000000000000000000000000000000000000000000000000000000000000000000000000000000000000000000000000000000000000000000000364dd46508f00000000000000000000000000000000000000000000000000000000000000400000000000000000000000000000000000000000000000000000000068d363d30000000000000000000000000000000000000000000000000000000000000300000000000000000000000000000000000000000000000000000000000000004000000000000000000000000000000000000000000000000000000000000000800000000000000000000000000000000000000000000000000000000000000002020d00000000000000000000000000000000000000000000000000000000000000000000000000000000000000000000000000000000000000000000000000020000000000000000000000000000000000000000000000000000000000000040000000000000000000000000000000000000000000000000000000000000020000000000000000000000000000000000000000000000000000000000000001a00000000000000000000000002add1065570c3847716aa9c52df81a5e56172055000000000000000000000000833589fcd6edb6e08f4c7c32d4f71b54bda029130000000000000000000000000000000000000000000000000000000000002710000000000000000000000000000000000000000000000000000000000000003c0000000000000000000000008f79b9131d74b32642868fb4593da678029180ccfffffffffffffffffffffffffffffffffffffffffffffffffffffffffff2764c00000000000000000000000000000000000000000000000000000000000d89b400000000000000000000000000000000000000000000000000001cc2c05dbc5300000000000000000000000000000000000000000000003635c9adc5dea0000100000000000000000000000000000000000000000000000000000000000f4241000000000000000000000000000000d437ec79d30887af214894f77b968b3ef90000000000000000000000000000000000000000000000000000000000000180000000000000000000000000000000000000000000000000000000000000000000000000000000000000000000000000000000000000000000000000000000400000000000000000000000002add1065570c3847716aa9c52df81a5e56172055000000000000000000000000833589fcd6edb6e08f4c7c32d4f71b54bda0291300000000000000000000000000000000000000000000000000000000",
        "nonce": "0x2c",
        "chainId": "0x2105"
      },
      "additionalContracts": [],
      "isFixedGasLimit": false
    }
  ],
  "receipts": [
    {
      "status": "0x1",
      "cumulativeGasUsed": "0x27011a9",
      "logs": [
        {
          "address": "0x2add1065570c3847716aa9c52df81a5e56172055",
          "topics": [
            "0x8c5be1e5ebec7d5bd14f71427d1e84f3dd0314c0f7b2291e5b200ac8c7c3b925",
            "0x000000000000000000000000000000d437ec79d30887af214894f77b968b3ef9",
            "0x000000000000000000000000000000000022d473030f116ddee9f6b43ac78ba3"
          ],
          "data": "0xffffffffffffffffffffffffffffffffffffffffffffffffffffffffffffffff",
          "blockHash": "0x53873728cbf28f1ff40f7ce2be96ef2e488c761eb62b7f469a3c74401c19ab9f",
          "blockNumber": "0x2248361",
          "blockTimestamp": "0x68d363a5",
          "transactionHash": "0x6136fdc9dd4371b1b21086b57e8c1e127b295a8e63af1a07c7500f985684bfba",
          "transactionIndex": "0xf5",
          "logIndex": "0x1b3",
          "removed": false
        }
      ],
      "logsBloom": "0x00000000000000000000000000000000000000000000000000000000000000000000000000000000000000000000000000000000800000000000000000200000000000000000000000004000000000000000000000000800000000000000000000000000000000000000000000000000000000000000000000000000000000000000000000000000000000000002000000000000000000000000000000000000020000000084000000000000000000000000000000000800000000000000080000000000000000000000000000000000000000000000000000000000000000000010100000000000000000000000000000000000000000000000000000000000",
      "type": "0x2",
      "transactionHash": "0x6136fdc9dd4371b1b21086b57e8c1e127b295a8e63af1a07c7500f985684bfba",
      "transactionIndex": "0xf5",
      "blockHash": "0x53873728cbf28f1ff40f7ce2be96ef2e488c761eb62b7f469a3c74401c19ab9f",
      "blockNumber": "0x2248361",
      "gasUsed": "0xb61b",
      "effectiveGasPrice": "0x3c1954",
      "from": "0x000000d437ec79d30887af214894f77b968b3ef9",
      "to": "0x2add1065570c3847716aa9c52df81a5e56172055",
      "contractAddress": null,
      "l1BaseFeeScalar": "0x8dd",
      "l1BlobBaseFee": "0x14",
      "l1BlobBaseFeeScalar": "0x101c12",
      "l1Fee": "0x2157ff36",
      "l1GasPrice": "0x92f3f10",
      "l1GasUsed": "0x640"
    },
    {
      "status": "0x1",
      "cumulativeGasUsed": "0x5c878a",
      "logs": [
        {
          "address": "0x000000000022d473030f116ddee9f6b43ac78ba3",
          "topics": [
            "0xda9fa7c1b00402c17d0161b249b1ab8bbec047c5a52207b9c112deffd817036b",
            "0x000000000000000000000000000000d437ec79d30887af214894f77b968b3ef9",
            "0x0000000000000000000000002add1065570c3847716aa9c52df81a5e56172055",
            "0x0000000000000000000000007c5f5a4bbd8fd63184577525326123b519429bdc"
          ],
          "data": "0x000000000000000000000000ffffffffffffffffffffffffffffffffffffffff0000000000000000000000000000000000000000000000000000ffffffffffff",
          "blockHash": "0xb695bbac3827845afab400ef37878e91984c95e8d8582e07a4cebd299fb3f7e9",
          "blockNumber": "0x2248362",
          "blockTimestamp": "0x68d363a7",
          "transactionHash": "0x75f069c025c58b348995bd572008b32264dd78ee926f0002934273d27d15d9dd",
          "transactionIndex": "0x30",
          "logIndex": "0x80",
          "removed": false
        }
      ],
      "logsBloom": "0x00010000000000000000000000000000000000000000000000000000000000000000000000000000000000000000000000000000000000000000000000082000000000000000000000000000000000000000000000000000000000000000000000000000000000000000000000000000000000000000000000000000000000000020000000000000000000000002000000000000000000000000000000000000000000000000000000000000000000000000000000000800000100080000080200000000000000000000000000000000000000000000000040200000000000002000000000000000000000000000000000000000002000000000000000000400",
      "type": "0x2",
      "transactionHash": "0x75f069c025c58b348995bd572008b32264dd78ee926f0002934273d27d15d9dd",
      "transactionIndex": "0x30",
      "blockHash": "0xb695bbac3827845afab400ef37878e91984c95e8d8582e07a4cebd299fb3f7e9",
      "blockNumber": "0x2248362",
      "gasUsed": "0xbaca",
      "effectiveGasPrice": "0x3bfbdb",
      "from": "0x000000d437ec79d30887af214894f77b968b3ef9",
      "to": "0x000000000022d473030f116ddee9f6b43ac78ba3",
      "contractAddress": null,
      "l1BaseFeeScalar": "0x8dd",
      "l1BlobBaseFee": "0x16",
      "l1BlobBaseFeeScalar": "0x101c12",
      "l1Fee": "0x23d40528",
      "l1GasPrice": "0x8dd50c6",
      "l1GasUsed": "0x6f5"
    },
    {
      "status": "0x1",
      "cumulativeGasUsed": "0x5d1e6b",
      "logs": [
        {
          "address": "0x833589fcd6edb6e08f4c7c32d4f71b54bda02913",
          "topics": [
            "0x8c5be1e5ebec7d5bd14f71427d1e84f3dd0314c0f7b2291e5b200ac8c7c3b925",
            "0x000000000000000000000000000000d437ec79d30887af214894f77b968b3ef9",
            "0x000000000000000000000000000000000022d473030f116ddee9f6b43ac78ba3"
          ],
          "data": "0xffffffffffffffffffffffffffffffffffffffffffffffffffffffffffffffff",
          "blockHash": "0xb695bbac3827845afab400ef37878e91984c95e8d8582e07a4cebd299fb3f7e9",
          "blockNumber": "0x2248362",
          "blockTimestamp": "0x68d363a7",
          "transactionHash": "0x67ba2c80fb01d1697de0fd9f413ddddf0c32c75e4211b88bfa97c29abdf4e3dd",
          "transactionIndex": "0x31",
          "logIndex": "0x81",
          "removed": false
        }
      ],
      "logsBloom": "0x00000000000000000000000000000000000000000000000000000000000000000000000000000000000000000000100000000000800000000000000000200000000000000000000000004000000000000000000000080800000000000000000000800000000000000000000000000000000000000000000000000000000000000000000000000000000000000002000000000000000000000000000000000000020000000000000000000000000000000000000000000800000000000000080000000000000000000000000000000000000000000000000000000000000000000010000000000000000000000000000000000000000000000000000000000000",
      "type": "0x2",
      "transactionHash": "0x67ba2c80fb01d1697de0fd9f413ddddf0c32c75e4211b88bfa97c29abdf4e3dd",
      "transactionIndex": "0x31",
      "blockHash": "0xb695bbac3827845afab400ef37878e91984c95e8d8582e07a4cebd299fb3f7e9",
      "blockNumber": "0x2248362",
      "gasUsed": "0x96e1",
      "effectiveGasPrice": "0x3bfbdb",
      "from": "0x000000d437ec79d30887af214894f77b968b3ef9",
      "to": "0x833589fcd6edb6e08f4c7c32d4f71b54bda02913",
      "contractAddress": null,
      "l1BaseFeeScalar": "0x8dd",
      "l1BlobBaseFee": "0x16",
      "l1BlobBaseFeeScalar": "0x101c12",
      "l1Fee": "0x202e8efa",
      "l1GasPrice": "0x8dd50c6",
      "l1GasUsed": "0x640"
    },
    {
      "status": "0x1",
      "cumulativeGasUsed": "0x5d8b79",
      "logs": [
        {
          "address": "0x000000000022d473030f116ddee9f6b43ac78ba3",
          "topics": [
            "0xda9fa7c1b00402c17d0161b249b1ab8bbec047c5a52207b9c112deffd817036b",
            "0x000000000000000000000000000000d437ec79d30887af214894f77b968b3ef9",
            "0x000000000000000000000000833589fcd6edb6e08f4c7c32d4f71b54bda02913",
            "0x0000000000000000000000007c5f5a4bbd8fd63184577525326123b519429bdc"
          ],
          "data": "0x000000000000000000000000ffffffffffffffffffffffffffffffffffffffff0000000000000000000000000000000000000000000000000000ffffffffffff",
          "blockHash": "0xb695bbac3827845afab400ef37878e91984c95e8d8582e07a4cebd299fb3f7e9",
          "blockNumber": "0x2248362",
          "blockTimestamp": "0x68d363a7",
          "transactionHash": "0xfb7ea6318a50ba0ab107c50d4ce5ca0434358f8ca61b6a8d2492bd3c49e22d60",
          "transactionIndex": "0x32",
          "logIndex": "0x82",
          "removed": false
        }
      ],
      "logsBloom": "0x00010000000000000000000000000000000000000000000000000000000000000000000000000000000000000000000000000000000000000000000000082000000000000000040000000000000000000000000000000000000000000000000000000000000000000000000000000000010000000000000000000000000000000020000000000000400000000002000000000000000000000000000000000000000000000000000000000000000000000000000000000800000000080000080200000000000000000000000000000000000000000000000040000000000000000000000000000000000000000000000000000000002000000000000000000400",
      "type": "0x2",
      "transactionHash": "0xfb7ea6318a50ba0ab107c50d4ce5ca0434358f8ca61b6a8d2492bd3c49e22d60",
      "transactionIndex": "0x32",
      "blockHash": "0xb695bbac3827845afab400ef37878e91984c95e8d8582e07a4cebd299fb3f7e9",
      "blockNumber": "0x2248362",
      "gasUsed": "0x6d0e",
      "effectiveGasPrice": "0x3bfbdb",
      "from": "0x000000d437ec79d30887af214894f77b968b3ef9",
      "to": "0x000000000022d473030f116ddee9f6b43ac78ba3",
      "contractAddress": null,
      "l1BaseFeeScalar": "0x8dd",
      "l1BlobBaseFee": "0x16",
      "l1BlobBaseFeeScalar": "0x101c12",
      "l1Fee": "0x238f1ac7",
      "l1GasPrice": "0x8dd50c6",
      "l1GasUsed": "0x6e7"
    },
    {
      "status": "0x1",
      "cumulativeGasUsed": "0x6d7199",
      "logs": [
        {
          "address": "0x498581ff718922c3f8e6a244956af099b2652b2b",
          "topics": [
            "0xdd466e674ea557f56295e2d0218a125ea4b4f0f6f3307b95f85e6110838d6438",
            "0x5adacce83acca0694cf47456daf62962603d178d3e0ccdb3ed21c0516d4a9961",
            "0x0000000000000000000000002add1065570c3847716aa9c52df81a5e56172055",
            "0x000000000000000000000000833589fcd6edb6e08f4c7c32d4f71b54bda02913"
          ],
          "data": "0x0000000000000000000000000000000000000000000000000000000000002710000000000000000000000000000000000000000000000000000000000000003c0000000000000000000000008f79b9131d74b32642868fb4593da678029180cc000000000000000000000000000000000000000000000087d19c4eb75a000000fffffffffffffffffffffffffffffffffffffffffffffffffffffffffffabac2",
          "blockHash": "0xb695bbac3827845afab400ef37878e91984c95e8d8582e07a4cebd299fb3f7e9",
          "blockNumber": "0x2248362",
          "blockTimestamp": "0x68d363a7",
          "transactionHash": "0x7d214d70c123addae9b83dab569945079d23849710364ac20b600156df775fc7",
          "transactionIndex": "0x39",
          "logIndex": "0x89",
          "removed": false
        },
        {
          "address": "0x7c5f5a4bbd8fd63184577525326123b519429bdc",
          "topics": [
            "0xddf252ad1be2c89b69c2b068fc378daa952ba7f163c4a11628f55a4df523b3ef",
            "0x0000000000000000000000000000000000000000000000000000000000000000",
            "0x000000000000000000000000000000d437ec79d30887af214894f77b968b3ef9",
            "0x0000000000000000000000000000000000000000000000000000000000048286"
          ],
          "data": "0x",
          "blockHash": "0xb695bbac3827845afab400ef37878e91984c95e8d8582e07a4cebd299fb3f7e9",
          "blockNumber": "0x2248362",
          "blockTimestamp": "0x68d363a7",
          "transactionHash": "0x7d214d70c123addae9b83dab569945079d23849710364ac20b600156df775fc7",
          "transactionIndex": "0x39",
          "logIndex": "0x8a",
          "removed": false
        },
        {
          "address": "0x498581ff718922c3f8e6a244956af099b2652b2b",
          "topics": [
            "0xf208f4912782fd25c7f114ca3723a2d5dd6f3bcc3ac8db5af63baa85f711d5ec",
            "0x5adacce83acca0694cf47456daf62962603d178d3e0ccdb3ed21c0516d4a9961",
            "0x0000000000000000000000007c5f5a4bbd8fd63184577525326123b519429bdc"
          ],
          "data": "0xfffffffffffffffffffffffffffffffffffffffffffffffffffffffffff2764c00000000000000000000000000000000000000000000000000000000000d89b400000000000000000000000000000000000000000000000000001cc2c05dbc530000000000000000000000000000000000000000000000000000000000048286",
          "blockHash": "0xb695bbac3827845afab400ef37878e91984c95e8d8582e07a4cebd299fb3f7e9",
          "blockNumber": "0x2248362",
          "blockTimestamp": "0x68d363a7",
          "transactionHash": "0x7d214d70c123addae9b83dab569945079d23849710364ac20b600156df775fc7",
          "transactionIndex": "0x39",
          "logIndex": "0x8b",
          "removed": false
        },
        {
          "address": "0x2add1065570c3847716aa9c52df81a5e56172055",
          "topics": [
            "0xddf252ad1be2c89b69c2b068fc378daa952ba7f163c4a11628f55a4df523b3ef",
            "0x000000000000000000000000000000d437ec79d30887af214894f77b968b3ef9",
            "0x000000000000000000000000498581ff718922c3f8e6a244956af099b2652b2b"
          ],
          "data": "0x00000000000000000000000000000000000000000000003635c9adc5dd21e1fe",
          "blockHash": "0xb695bbac3827845afab400ef37878e91984c95e8d8582e07a4cebd299fb3f7e9",
          "blockNumber": "0x2248362",
          "blockTimestamp": "0x68d363a7",
          "transactionHash": "0x7d214d70c123addae9b83dab569945079d23849710364ac20b600156df775fc7",
          "transactionIndex": "0x39",
          "logIndex": "0x8c",
          "removed": false
        },
        {
          "address": "0x833589fcd6edb6e08f4c7c32d4f71b54bda02913",
          "topics": [
            "0xddf252ad1be2c89b69c2b068fc378daa952ba7f163c4a11628f55a4df523b3ef",
            "0x000000000000000000000000000000d437ec79d30887af214894f77b968b3ef9",
            "0x000000000000000000000000498581ff718922c3f8e6a244956af099b2652b2b"
          ],
          "data": "0x00000000000000000000000000000000000000000000000000000000000f4240",
          "blockHash": "0xb695bbac3827845afab400ef37878e91984c95e8d8582e07a4cebd299fb3f7e9",
          "blockNumber": "0x2248362",
          "blockTimestamp": "0x68d363a7",
          "transactionHash": "0x7d214d70c123addae9b83dab569945079d23849710364ac20b600156df775fc7",
          "transactionIndex": "0x39",
          "logIndex": "0x8d",
          "removed": false
        }
      ],
      "logsBloom": "0x0000000000000000000000000000000000000000000000000000000000000000002000000000000000000000000010000000000000000000000000000000200000000800000004000000000800000000000000000008000000000000000000000080000002000000000000000000080005000000000000000000001000000000000000000100400840000000000200000000000100000000000000040020000000400400008400000a000000000000000000000000000800000100000000080202000002000001000000000000000000000800000000000000220000000020002008100000000000000000000000000004000400002000000004000000000000",
      "type": "0x2",
      "transactionHash": "0x7d214d70c123addae9b83dab569945079d23849710364ac20b600156df775fc7",
      "transactionIndex": "0x39",
      "blockHash": "0xb695bbac3827845afab400ef37878e91984c95e8d8582e07a4cebd299fb3f7e9",
      "blockNumber": "0x2248362",
      "gasUsed": "0x74b56",
      "effectiveGasPrice": "0x3bfbdb",
      "from": "0x000000d437ec79d30887af214894f77b968b3ef9",
      "to": "0x7c5f5a4bbd8fd63184577525326123b519429bdc",
      "contractAddress": null,
      "l1BaseFeeScalar": "0x8dd",
      "l1BlobBaseFee": "0x16",
      "l1BlobBaseFeeScalar": "0x101c12",
      "l1Fee": "0x66dbfd76",
      "l1GasPrice": "0x8dd50c6",
      "l1GasUsed": "0x13f9"
    }
  ],
  "libraries": [],
  "pending": [],
  "returns": {},
  "timestamp": 1758684071,
  "chain": 8453,
  "commit": "a3cc4be"
}