{
  "transactions": [
    {
      "hash": "0x3df79dd23023dade61e4bd52a0bc445d66c4d4830d3622f1a2ed3b0019589392",
      "transactionType": "CALL",
      "contractName": null,
      "contractAddress": "0x076ca43b614d63b164332aab31bbca841f8df871",
      "function": "approve(address,uint256)",
      "arguments": [
        "0x000000000022D473030F116dDEE9F6B43aC78BA3",
        "115792089237316195423570985008687907853269984665640564039457584007913129639935"
      ],
      "transaction": {
        "from": "0x000000d437ec79d30887af214894f77b968b3ef9",
        "to": "0x076ca43b614d63b164332aab31bbca841f8df871",
        "gas": "0x10a53",
        "value": "0x0",
        "input": "0x095ea7b3000000000000000000000000000000000022d473030f116ddee9f6b43ac78ba3ffffffffffffffffffffffffffffffffffffffffffffffffffffffffffffffff",
        "nonce": "0xc",
        "chainId": "0x2105"
      },
      "additionalContracts": [],
      "isFixedGasLimit": false
    },
    {
      "hash": "0x8e3cacd4837a429aab151ffecfebef4407103edfd35c6e8fad60abea865326a2",
      "transactionType": "CALL",
      "contractName": null,
      "contractAddress": "0x000000000022d473030f116ddee9f6b43ac78ba3",
      "function": "approve(address,address,uint160,uint48)",
      "arguments": [
        "0x076cA43b614D63b164332aAB31BBcA841f8Df871",
        "0x7C5f5A4bBd8fD63184577525326123B519429bDc",
        "1461501637330902918203684832716283019655932542975",
        "281474976710655"
      ],
      "transaction": {
        "from": "0x000000d437ec79d30887af214894f77b968b3ef9",
        "to": "0x000000000022d473030f116ddee9f6b43ac78ba3",
        "gas": "0x1112d",
        "value": "0x0",
        "input": "0x87517c45000000000000000000000000076ca43b614d63b164332aab31bbca841f8df8710000000000000000000000007c5f5a4bbd8fd63184577525326123b519429bdc000000000000000000000000ffffffffffffffffffffffffffffffffffffffff0000000000000000000000000000000000000000000000000000ffffffffffff",
        "nonce": "0xd",
        "chainId": "0x2105"
      },
      "additionalContracts": [],
      "isFixedGasLimit": false
    },
    {
      "hash": "0x04dc30614aa422774be35b54de8c2cdd287e650ded423f33d5987d5acaac6a3a",
      "transactionType": "CALL",
      "contractName": null,
      "contractAddress": "0x833589fcd6edb6e08f4c7c32d4f71b54bda02913",
      "function": "approve(address,uint256)",
      "arguments": [
        "0x000000000022D473030F116dDEE9F6B43aC78BA3",
        "115792089237316195423570985008687907853269984665640564039457584007913129639935"
      ],
      "transaction": {
        "from": "0x000000d437ec79d30887af214894f77b968b3ef9",
        "to": "0x833589fcd6edb6e08f4c7c32d4f71b54bda02913",
        "gas": "0x12ca9",
        "value": "0x0",
        "input": "0x095ea7b3000000000000000000000000000000000022d473030f116ddee9f6b43ac78ba3ffffffffffffffffffffffffffffffffffffffffffffffffffffffffffffffff",
        "nonce": "0xe",
        "chainId": "0x2105"
      },
      "additionalContracts": [],
      "isFixedGasLimit": false
    },
    {
      "hash": "0x880ddcf1228bb29e13d335b66afea03a6076b1d736342b73250401fcbaa36655",
      "transactionType": "CALL",
      "contractName": null,
      "contractAddress": "0x000000000022d473030f116ddee9f6b43ac78ba3",
      "function": "approve(address,address,uint160,uint48)",
      "arguments": [
        "0x833589fCD6eDb6E08f4c7C32D4f71b54bdA02913",
        "0x7C5f5A4bBd8fD63184577525326123B519429bDc",
        "1461501637330902918203684832716283019655932542975",
        "281474976710655"
      ],
      "transaction": {
        "from": "0x000000d437ec79d30887af214894f77b968b3ef9",
        "to": "0x000000000022d473030f116ddee9f6b43ac78ba3",
        "gas": "0x1112d",
        "value": "0x0",
        "input": "0x87517c45000000000000000000000000833589fcd6edb6e08f4c7c32d4f71b54bda029130000000000000000000000007c5f5a4bbd8fd63184577525326123b519429bdc000000000000000000000000ffffffffffffffffffffffffffffffffffffffff0000000000000000000000000000000000000000000000000000ffffffffffff",
        "nonce": "0xf",
        "chainId": "0x2105"
      },
      "additionalContracts": [],
      "isFixedGasLimit": false
    },
    {
      "hash": "0x162e5daa9d83a946d82a4511061edfac7a179299ce19eeadd2a0ac89e60a4cc0",
      "transactionType": "CALL",
      "contractName": null,
      "contractAddress": "0x7c5f5a4bbd8fd63184577525326123b519429bdc",
      "function": "multicall(bytes[])",
      "arguments": [
        "[0xf7020405000000000000000000000000076ca43b614d63b164332aab31bbca841f8df871000000000000000000000000833589fcd6edb6e08f4c7c32d4f71b54bda029130000000000000000000000000000000000000000000000000000000000002710000000000000000000000000000000000000000000000000000000000000003c0000000000000000000000003f6c4280a39be7354da82a74b685bc72563f80cc0000000000000000000000000000000000000000000000006df37f675ef6ec0000000000000000000000000000000000000000000000000000000000000000e00000000000000000000000000000000000000000000000000000000000000000, 0xdd46508f00000000000000000000000000000000000000000000000000000000000000400000000000000000000000000000000000000000000000000000000068cf53210000000000000000000000000000000000000000000000000000000000000300000000000000000000000000000000000000000000000000000000000000004000000000000000000000000000000000000000000000000000000000000000800000000000000000000000000000000000000000000000000000000000000002020d00000000000000000000000000000000000000000000000000000000000000000000000000000000000000000000000000000000000000000000000000020000000000000000000000000000000000000000000000000000000000000040000000000000000000000000000000000000000000000000000000000000020000000000000000000000000000000000000000000000000000000000000001a0000000000000000000000000076ca43b614d63b164332aab31bbca841f8df871000000000000000000000000833589fcd6edb6e08f4c7c32d4f71b54bda029130000000000000000000000000000000000000000000000000000000000002710000000000000000000000000000000000000000000000000000000000000003c0000000000000000000000003f6c4280a39be7354da82a74b685bc72563f80ccfffffffffffffffffffffffffffffffffffffffffffffffffffffffffff2764c00000000000000000000000000000000000000000000000000000000000d89b4000000000000000000000000000000000000000000000000016345785d8a00030000000000000000000000000000000000000000033b2e3c9fd0803ce800000100000000000000000000000000000000000000000000000000000000009896810000000000000000000000001804c8ab1f12e6bbf3894d4083f33e07309d1f38000000000000000000000000000000000000000000000000000000000000018000000000000000000000000000000000000000000000000000000000000000000000000000000000000000000000000000000000000000000000000000000040000000000000000000000000076ca43b614d63b164332aab31bbca841f8df871000000000000000000000000833589fcd6edb6e08f4c7c32d4f71b54bda02913]"
      ],
      "transaction": {
        "from": "0x000000d437ec79d30887af214894f77b968b3ef9",
        "to": "0x7c5f5a4bbd8fd63184577525326123b519429bdc",
        "gas": "0x9b7c9",
        "value": "0x0",
        "input": "0xac9650d800000000000000000000000000000000000000000000000000000000000000200000000000000000000000000000000000000000000000000000000000000002000000000000000000000000000000000000000000000000000000000000004000000000000000000000000000000000000000000000000000000000000001800000000000000000000000000000000000000000000000000000000000000104f7020405000000000000000000000000076ca43b614d63b164332aab31bbca841f8df871000000000000000000000000833589fcd6edb6e08f4c7c32d4f71b54bda029130000000000000000000000000000000000000000000000000000000000002710000000000000000000000000000000000000000000000000000000000000003c0000000000000000000000003f6c4280a39be7354da82a74b685bc72563f80cc0000000000000000000000000000000000000000000000006df37f675ef6ec0000000000000000000000000000000000000000000000000000000000000000e00000000000000000000000000000000000000000000000000000000000000000000000000000000000000000000000000000000000000000000000000000000000000000000000000000000000000000000000000000000000000364dd46508f00000000000000000000000000000000000000000000000000000000000000400000000000000000000000000000000000000000000000000000000068cf53210000000000000000000000000000000000000000000000000000000000000300000000000000000000000000000000000000000000000000000000000000004000000000000000000000000000000000000000000000000000000000000000800000000000000000000000000000000000000000000000000000000000000002020d00000000000000000000000000000000000000000000000000000000000000000000000000000000000000000000000000000000000000000000000000020000000000000000000000000000000000000000000000000000000000000040000000000000000000000000000000000000000000000000000000000000020000000000000000000000000000000000000000000000000000000000000001a0000000000000000000000000076ca43b614d63b164332aab31bbca841f8df871000000000000000000000000833589fcd6edb6e08f4c7c32d4f71b54bda029130000000000000000000000000000000000000000000000000000000000002710000000000000000000000000000000000000000000000000000000000000003c0000000000000000000000003f6c4280a39be7354da82a74b685bc72563f80ccfffffffffffffffffffffffffffffffffffffffffffffffffffffffffff2764c00000000000000000000000000000000000000000000000000000000000d89b4000000000000000000000000000000000000000000000000016345785d8a00030000000000000000000000000000000000000000033b2e3c9fd0803ce800000100000000000000000000000000000000000000000000000000000000009896810000000000000000000000001804c8ab1f12e6bbf3894d4083f33e07309d1f38000000000000000000000000000000000000000000000000000000000000018000000000000000000000000000000000000000000000000000000000000000000000000000000000000000000000000000000000000000000000000000000040000000000000000000000000076ca43b614d63b164332aab31bbca841f8df871000000000000000000000000833589fcd6edb6e08f4c7c32d4f71b54bda0291300000000000000000000000000000000000000000000000000000000",
        "nonce": "0x10",
        "chainId": "0x2105"
      },
      "additionalContracts": [],
      "isFixedGasLimit": false
    }
  ],
  "receipts": [
    {
      "status": "0x1",
      "cumulativeGasUsed": "0x32aa71a",
      "logs": [
        {
          "address": "0x076ca43b614d63b164332aab31bbca841f8df871",
          "topics": [
            "0x8c5be1e5ebec7d5bd14f71427d1e84f3dd0314c0f7b2291e5b200ac8c7c3b925",
            "0x000000000000000000000000000000d437ec79d30887af214894f77b968b3ef9",
            "0x000000000000000000000000000000000022d473030f116ddee9f6b43ac78ba3"
          ],
          "data": "0xffffffffffffffffffffffffffffffffffffffffffffffffffffffffffffffff",
          "blockHash": "0xc34e623ff45bd972db33df311451f5366887b108a0477d567745d0fe12cc153c",
          "blockNumber": "0x2227b0f",
          "blockTimestamp": "0x68cf5301",
          "transactionHash": "0x3df79dd23023dade61e4bd52a0bc445d66c4d4830d3622f1a2ed3b0019589392",
          "transactionIndex": "0x139",
          "logIndex": "0x2a4",
          "removed": false
        }
      ],
      "logsBloom": "0x00000000000000000000000100000000000000000000000000000000000000000000000000000000000000000000000000000000800000000000000000200000000000000000000000004000000000000000000000000800000000000000000000000000000004000000000000000000000000000000000000000000000000000000000000000000000000000002000000000000000000000000000000000000020000000000000000000000000000000000000000000800000000000000080000000000000000000000000000000000000000000000000000000000000000000010000000000000000000000000800000000000000000000000000000000000",
      "type": "0x2",
      "transactionHash": "0x3df79dd23023dade61e4bd52a0bc445d66c4d4830d3622f1a2ed3b0019589392",
      "transactionIndex": "0x139",
      "blockHash": "0xc34e623ff45bd972db33df311451f5366887b108a0477d567745d0fe12cc153c",
      "blockNumber": "0x2227b0f",
      "gasUsed": "0xb61b",
      "effectiveGasPrice": "0x340dfb",
      "from": "0x000000d437ec79d30887af214894f77b968b3ef9",
      "to": "0x076ca43b614d63b164332aab31bbca841f8df871",
      "contractAddress": null,
      "l1BaseFeeScalar": "0x8dd",
      "l1BlobBaseFee": "0x1",
      "l1BlobBaseFeeScalar": "0x101c12",
      "l1Fee": "0x19d5320c",
      "l1GasPrice": "0x71d9da3",
      "l1GasUsed": "0x640"
    },
    {
      "status": "0x1",
      "cumulativeGasUsed": "0x362a29f",
      "logs": [
        {
          "address": "0x000000000022d473030f116ddee9f6b43ac78ba3",
          "topics": [
            "0xda9fa7c1b00402c17d0161b249b1ab8bbec047c5a52207b9c112deffd817036b",
            "0x000000000000000000000000000000d437ec79d30887af214894f77b968b3ef9",
            "0x000000000000000000000000076ca43b614d63b164332aab31bbca841f8df871",
            "0x0000000000000000000000007c5f5a4bbd8fd63184577525326123b519429bdc"
          ],
          "data": "0x000000000000000000000000ffffffffffffffffffffffffffffffffffffffff0000000000000000000000000000000000000000000000000000ffffffffffff",
          "blockHash": "0xc34e623ff45bd972db33df311451f5366887b108a0477d567745d0fe12cc153c",
          "blockNumber": "0x2227b0f",
          "blockTimestamp": "0x68cf5301",
          "transactionHash": "0x8e3cacd4837a429aab151ffecfebef4407103edfd35c6e8fad60abea865326a2",
          "transactionIndex": "0x155",
          "logIndex": "0x2bc",
          "removed": false
        }
      ],
      "logsBloom": "0x00010000000000000000000000000000000000000000000000000000000000000000000000000000000000000000000000000000000000000000000000082000400000000000000000000000000000000000000000000000000000000000000000000000000000000000000000000000000000000000000000090000000000000020000000000000000000000002000000000000000000000000000000000000000000000000000000000000000000000000000000000800000000080000080200000000000000000000000000000000000000000000000040000000000000000000000000000000000000000000000000000000002000000000000000000400",
      "type": "0x2",
      "transactionHash": "0x8e3cacd4837a429aab151ffecfebef4407103edfd35c6e8fad60abea865326a2",
      "transactionIndex": "0x155",
      "blockHash": "0xc34e623ff45bd972db33df311451f5366887b108a0477d567745d0fe12cc153c",
      "blockNumber": "0x2227b0f",
      "gasUsed": "0xbaca",
      "effectiveGasPrice": "0x340dfb",
      "from": "0x000000d437ec79d30887af214894f77b968b3ef9",
      "to": "0x000000000022d473030f116ddee9f6b43ac78ba3",
      "contractAddress": null,
      "l1BaseFeeScalar": "0x8dd",
      "l1BlobBaseFee": "0x1",
      "l1BlobBaseFeeScalar": "0x101c12",
      "l1Fee": "0x1cc27f3b",
      "l1GasPrice": "0x71d9da3",
      "l1GasUsed": "0x6f5"
    },
    {
      "status": "0x1",
      "cumulativeGasUsed": "0x3637c4c",
      "logs": [
        {
          "address": "0x833589fcd6edb6e08f4c7c32d4f71b54bda02913",
          "topics": [
            "0x8c5be1e5ebec7d5bd14f71427d1e84f3dd0314c0f7b2291e5b200ac8c7c3b925",
            "0x000000000000000000000000000000d437ec79d30887af214894f77b968b3ef9",
            "0x000000000000000000000000000000000022d473030f116ddee9f6b43ac78ba3"
          ],
          "data": "0xffffffffffffffffffffffffffffffffffffffffffffffffffffffffffffffff",
          "blockHash": "0xc34e623ff45bd972db33df311451f5366887b108a0477d567745d0fe12cc153c",
          "blockNumber": "0x2227b0f",
          "blockTimestamp": "0x68cf5301",
          "transactionHash": "0x04dc30614aa422774be35b54de8c2cdd287e650ded423f33d5987d5acaac6a3a",
          "transactionIndex": "0x156",
          "logIndex": "0x2bd",
          "removed": false
        }
      ],
      "logsBloom": "0x00000000000000000000000000000000000000000000000000000000000000000000000000000000000000000000100000000000800000000000000000200000000000000000000000004000000000000000000000080800000000000000000000800000000000000000000000000000000000000000000000000000000000000000000000000000000000000002000000000000000000000000000000000000020000000000000000000000000000000000000000000800000000000000080000000000000000000000000000000000000000000000000000000000000000000010000000000000000000000000000000000000000000000000000000000000",
      "type": "0x2",
      "transactionHash": "0x04dc30614aa422774be35b54de8c2cdd287e650ded423f33d5987d5acaac6a3a",
      "transactionIndex": "0x156",
      "blockHash": "0xc34e623ff45bd972db33df311451f5366887b108a0477d567745d0fe12cc153c",
      "blockNumber": "0x2227b0f",
      "gasUsed": "0xd9ad",
      "effectiveGasPrice": "0x340dfb",
      "from": "0x000000d437ec79d30887af214894f77b968b3ef9",
      "to": "0x833589fcd6edb6e08f4c7c32d4f71b54bda02913",
      "contractAddress": null,
      "l1BaseFeeScalar": "0x8dd",
      "l1BlobBaseFee": "0x1",
      "l1BlobBaseFeeScalar": "0x101c12",
      "l1Fee": "0x19d5320c",
      "l1GasPrice": "0x71d9da3",
      "l1GasUsed": "0x640"
    },
    {
      "status": "0x1",
      "cumulativeGasUsed": "0x3643716",
      "logs": [
        {
          "address": "0x000000000022d473030f116ddee9f6b43ac78ba3",
          "topics": [
            "0xda9fa7c1b00402c17d0161b249b1ab8bbec047c5a52207b9c112deffd817036b",
            "0x000000000000000000000000000000d437ec79d30887af214894f77b968b3ef9",
            "0x000000000000000000000000833589fcd6edb6e08f4c7c32d4f71b54bda02913",
            "0x0000000000000000000000007c5f5a4bbd8fd63184577525326123b519429bdc"
          ],
          "data": "0x000000000000000000000000ffffffffffffffffffffffffffffffffffffffff0000000000000000000000000000000000000000000000000000ffffffffffff",
          "blockHash": "0xc34e623ff45bd972db33df311451f5366887b108a0477d567745d0fe12cc153c",
          "blockNumber": "0x2227b0f",
          "blockTimestamp": "0x68cf5301",
          "transactionHash": "0x880ddcf1228bb29e13d335b66afea03a6076b1d736342b73250401fcbaa36655",
          "transactionIndex": "0x157",
          "logIndex": "0x2be",
          "removed": false
        }
      ],
      "logsBloom": "0x00010000000000000000000000000000000000000000000000000000000000000000000000000000000000000000000000000000000000000000000000082000000000000000040000000000000000000000000000000000000000000000000000000000000000000000000000000000010000000000000000000000000000000020000000000000400000000002000000000000000000000000000000000000000000000000000000000000000000000000000000000800000000080000080200000000000000000000000000000000000000000000000040000000000000000000000000000000000000000000000000000000002000000000000000000400",
      "type": "0x2",
      "transactionHash": "0x880ddcf1228bb29e13d335b66afea03a6076b1d736342b73250401fcbaa36655",
      "transactionIndex": "0x157",
      "blockHash": "0xc34e623ff45bd972db33df311451f5366887b108a0477d567745d0fe12cc153c",
      "blockNumber": "0x2227b0f",
      "gasUsed": "0xbaca",
      "effectiveGasPrice": "0x340dfb",
      "from": "0x000000d437ec79d30887af214894f77b968b3ef9",
      "to": "0x000000000022d473030f116ddee9f6b43ac78ba3",
      "contractAddress": null,
      "l1BaseFeeScalar": "0x8dd",
      "l1BlobBaseFee": "0x1",
      "l1BlobBaseFeeScalar": "0x101c12",
      "l1Fee": "0x1cc27f3b",
      "l1GasPrice": "0x71d9da3",
      "l1GasUsed": "0x6f5"
    },
    {
      "status": "0x1",
      "cumulativeGasUsed": "0x36b4034",
      "logs": [
        {
          "address": "0x498581ff718922c3f8e6a244956af099b2652b2b",
          "topics": [
            "0xdd466e674ea557f56295e2d0218a125ea4b4f0f6f3307b95f85e6110838d6438",
            "0x1d6d97962f4b65a43fab3ff21ea0058360a8efc654a6cf66efcfd714a93539e8",
            "0x000000000000000000000000076ca43b614d63b164332aab31bbca841f8df871",
            "0x000000000000000000000000833589fcd6edb6e08f4c7c32d4f71b54bda02913"
          ],
          "data": "0x0000000000000000000000000000000000000000000000000000000000002710000000000000000000000000000000000000000000000000000000000000003c0000000000000000000000003f6c4280a39be7354da82a74b685bc72563f80cc0000000000000000000000000000000000000000000000006df37f675ef6ec00fffffffffffffffffffffffffffffffffffffffffffffffffffffffffff8f903",
          "blockHash": "0xc34e623ff45bd972db33df311451f5366887b108a0477d567745d0fe12cc153c",
          "blockNumber": "0x2227b0f",
          "blockTimestamp": "0x68cf5301",
          "transactionHash": "0x162e5daa9d83a946d82a4511061edfac7a179299ce19eeadd2a0ac89e60a4cc0",
          "transactionIndex": "0x158",
          "logIndex": "0x2bf",
          "removed": false
        },
        {
          "address": "0x7c5f5a4bbd8fd63184577525326123b519429bdc",
          "topics": [
            "0xddf252ad1be2c89b69c2b068fc378daa952ba7f163c4a11628f55a4df523b3ef",
            "0x0000000000000000000000000000000000000000000000000000000000000000",
            "0x0000000000000000000000001804c8ab1f12e6bbf3894d4083f33e07309d1f38",
            "0x0000000000000000000000000000000000000000000000000000000000045e5c"
          ],
          "data": "0x",
          "blockHash": "0xc34e623ff45bd972db33df311451f5366887b108a0477d567745d0fe12cc153c",
          "blockNumber": "0x2227b0f",
          "blockTimestamp": "0x68cf5301",
          "transactionHash": "0x162e5daa9d83a946d82a4511061edfac7a179299ce19eeadd2a0ac89e60a4cc0",
          "transactionIndex": "0x158",
          "logIndex": "0x2c0",
          "removed": false
        },
        {
          "address": "0x498581ff718922c3f8e6a244956af099b2652b2b",
          "topics": [
            "0xf208f4912782fd25c7f114ca3723a2d5dd6f3bcc3ac8db5af63baa85f711d5ec",
            "0x1d6d97962f4b65a43fab3ff21ea0058360a8efc654a6cf66efcfd714a93539e8",
            "0x0000000000000000000000007c5f5a4bbd8fd63184577525326123b519429bdc"
          ],
          "data": "0xfffffffffffffffffffffffffffffffffffffffffffffffffffffffffff2764c00000000000000000000000000000000000000000000000000000000000d89b4000000000000000000000000000000000000000000000000016345785d8a00030000000000000000000000000000000000000000000000000000000000045e5c",
          "blockHash": "0xc34e623ff45bd972db33df311451f5366887b108a0477d567745d0fe12cc153c",
          "blockNumber": "0x2227b0f",
          "blockTimestamp": "0x68cf5301",
          "transactionHash": "0x162e5daa9d83a946d82a4511061edfac7a179299ce19eeadd2a0ac89e60a4cc0",
          "transactionIndex": "0x158",
          "logIndex": "0x2c1",
          "removed": false
        },
        {
          "address": "0x076ca43b614d63b164332aab31bbca841f8df871",
          "topics": [
            "0xddf252ad1be2c89b69c2b068fc378daa952ba7f163c4a11628f55a4df523b3ef",
            "0x000000000000000000000000000000d437ec79d30887af214894f77b968b3ef9",
            "0x000000000000000000000000498581ff718922c3f8e6a244956af099b2652b2b"
          ],
          "data": "0x0000000000000000000000000000000000000000033b2e3c9fd0803b689c753d",
          "blockHash": "0xc34e623ff45bd972db33df311451f5366887b108a0477d567745d0fe12cc153c",
          "blockNumber": "0x2227b0f",
          "blockTimestamp": "0x68cf5301",
          "transactionHash": "0x162e5daa9d83a946d82a4511061edfac7a179299ce19eeadd2a0ac89e60a4cc0",
          "transactionIndex": "0x158",
          "logIndex": "0x2c2",
          "removed": false
        },
        {
          "address": "0x833589fcd6edb6e08f4c7c32d4f71b54bda02913",
          "topics": [
            "0xddf252ad1be2c89b69c2b068fc378daa952ba7f163c4a11628f55a4df523b3ef",
            "0x000000000000000000000000000000d437ec79d30887af214894f77b968b3ef9",
            "0x000000000000000000000000498581ff718922c3f8e6a244956af099b2652b2b"
          ],
          "data": "0x0000000000000000000000000000000000000000000000000000000000989680",
          "blockHash": "0xc34e623ff45bd972db33df311451f5366887b108a0477d567745d0fe12cc153c",
          "blockNumber": "0x2227b0f",
          "blockTimestamp": "0x68cf5301",
          "transactionHash": "0x162e5daa9d83a946d82a4511061edfac7a179299ce19eeadd2a0ac89e60a4cc0",
          "transactionIndex": "0x158",
          "logIndex": "0x2c3",
          "removed": false
        }
      ],
      "logsBloom": "0x00000000000000000000000100000000000000000000000000000000000000000020000000000000840000000000100000000000000000000000000000002000400000000000040000000008000000000000000000080000000000000000000000800000020004000001000000000800050000000000000000090010000000000000000001004008400004000002000000000001000000000000000400200000004004000000000008000000000000000000000800000800000000000000080200000002000005000000000000400000000800000000000000000000400020000000000200000000000000000000800004000400002000000000000000000000",
      "type": "0x2",
      "transactionHash": "0x162e5daa9d83a946d82a4511061edfac7a179299ce19eeadd2a0ac89e60a4cc0",
      "transactionIndex": "0x158",
      "blockHash": "0xc34e623ff45bd972db33df311451f5366887b108a0477d567745d0fe12cc153c",
      "blockNumber": "0x2227b0f",
      "gasUsed": "0x7091e",
      "effectiveGasPrice": "0x340dfb",
      "from": "0x000000d437ec79d30887af214894f77b968b3ef9",
      "to": "0x7c5f5a4bbd8fd63184577525326123b519429bdc",
      "contractAddress": null,
      "l1BaseFeeScalar": "0x8dd",
      "l1BlobBaseFee": "0x1",
      "l1BlobBaseFeeScalar": "0x101c12",
      "l1Fee": "0x52c85792",
      "l1GasPrice": "0x71d9da3",
      "l1GasUsed": "0x1407"
    }
  ],
  "libraries": [],
  "pending": [],
  "returns": {},
  "timestamp": 1758417666,
  "chain": 8453,
  "commit": "f9bdb12"
}