{
  "transactions": [
    {
      "hash": "0xd86f800f60ebfa01128f8fc8d7f39f25ce9ba0a30659887088cd44ab465ba2c5",
      "transactionType": "CREATE",
      "contractName": "DefaultSettings",
      "contractAddress": "0x2957a4c3f584efeaf086aafd7bd4141016652a10",
      "function": null,
      "arguments": [
        "0xf060fd6b66B13421c1E514e9f10BedAD52cF241e"
      ],
      "transaction": {
        "from": "0x21af1185734d213d45c6236146fb81e2b0e8b821",
        "value": "0x0",
        "input": "0x6080604052348015600e575f80fd5b506040516101b03803806101b0833981016040819052602b91604e565b5f80546001600160a01b0319166001600160a01b03929092169190911790556079565b5f60208284031215605d575f80fd5b81516001600160a01b03811681146072575f80fd5b9392505050565b61012a806100865f395ff3fe6080604052348015600e575f80fd5b50600436106026575f3560e01c80631d268c4014602a575b5f80fd5b60306048565b60405162ffffff909116815260200160405180910390f35b5f32806058575062403a98919050565b5f80546040516370a0823160e01b81526001600160a01b038481166004830152909116906370a0823190602401602060405180830381865afa158015609f573d5f803e3d5ffd5b505050506040513d601f19601f8201168201806040525081019060c1919060de565b9050801560d357506240000092915050565b5062403a9892915050565b5f6020828403121560ed575f80fd5b505191905056fea2646970667358221220b128c49f7f404152171fd60b4844c1c605ff49e23ccf4c5ac4e50c348cde719064736f6c634300081a0033000000000000000000000000f060fd6b66b13421c1e514e9f10bedad52cf241e",
        "nonce": "0xeb",
        "chainId": "0x2105"
      },
      "additionalContracts": [],
      "isFixedGasLimit": false
    },
    {
      "hash": "0xc4a1cc2a5305cb212295d1712a113fd721a57c58563e58390e16543f6dd746fb",
      "transactionType": "CREATE2",
      "contractName": "LotteryHook",
      "contractAddress": "0xf98482b71c099e78f30b6af7e0320480a5b7a080",
      "function": null,
      "arguments": [
        "0x498581fF718922c3f8e6A244956aF099B2652b2b",
        "0x2957A4c3F584EfEaF086aAFD7bd4141016652a10"
      ],
      "transaction": {
        "from": "0x21af1185734d213d45c6236146fb81e2b0e8b821",
        "to": "0x4e59b44847b379578588920ca78fbf26c0b4956c",
        "value": "0x0",
        "input": "0x000000000000000000000000000000000000000000000000000000000000368760c060405234801561000f575f80fd5b506040516117a33803806117a383398101604081905261002e916102c4565b6001600160a01b0382166080528161004530610058565b506001600160a01b031660a052506102fc565b61014881610143604080516101c0810182525f80825260208201819052918101829052606081018290526080810182905260a0810182905260c0810182905260e08101829052610100810182905261012081018290526101408101829052610160810182905261018081018290526101a081019190915250604080516101c08101825260018082525f60208301819052928201839052606082018390526080820183905260a0820183905260c082015260e08101829052610100810182905261012081018290526101408101829052610160810182905261018081018290526101a081019190915290565b61014b565b50565b805115156120008316151514158061016f5750602081015115156110008316151514155b806101865750604081015115156108008316151514155b8061019d5750606081015115156104008316151514155b806101b45750608081015115156102008316151514155b806101cb575060a081015115156101008316151514155b806101e1575060c0810151151560808316151514155b806101f7575060e0810151151560408316151514155b8061020e5750610100810151151560208316151514155b806102255750610120810151151560108316151514155b8061023c5750610140810151151560088316151514155b806102535750610160810151151560048316151514155b8061026a5750610180810151151560028316151514155b8061028157506101a0810151151560018316151514155b1561029757610297630732d7b560e51b8361029b565b5050565b815f526001600160a01b03811660045260245ffd5b6001600160a01b0381168114610148575f80fd5b5f80604083850312156102d5575f80fd5b82516102e0816102b0565b60208401519092506102f1816102b0565b809150509250929050565b60805160a05161147861032b5f395f6107b701525f818161048e0152818161066b015261087f01526114785ff3fe608060405234801561000f575f80fd5b5060043610610132575f3560e01c806392fa15cf116100b4578063c138feee11610079578063c138feee14610320578063c4e833ce1461038c578063d688fafd14610480578063dc4c90d314610489578063dc98354e146104c8578063e1b4af6914610312575f80fd5b806392fa15cf146102cf5780639f063efc14610251578063ac76f697146102d7578063b47b2fb1146102e1578063b6a8b0fa14610312575f80fd5b80635c593780116100fa5780635c5937801461023b5780636c2bbe7e146102515780636fe7e6eb146102845780637dc638121461029257806391dd7346146102af575f80fd5b80631320861b1461013657806321d0ee70146101b1578063259982e5146101b15780634cbb5ab3146101dd578063575e24b4146101fd575b5f80fd5b61017d610144366004610ca9565b5f90815260208190526040902080546001820154600283015460038401546004850154600590950154939592949193909260ff90911690565b6040805196875260208701959095529385019290925260608401526080830152151560a082015260c0015b60405180910390f35b6101c46101bf366004610d4f565b6104db565b6040516001600160e01b031990911681526020016101a8565b6101f06101eb366004610ca9565b6104f5565b6040516101a89190610dc6565b61021061020b366004610e21565b61055c565b604080516001600160e01b03199094168452602084019290925262ffffff16908201526060016101a8565b610243600a81565b6040519081526020016101a8565b61026461025f366004610e7b565b610857565b604080516001600160e01b031990931683526020830191909152016101a8565b6101c46101bf366004610f17565b61029b61271081565b60405162ffffff90911681526020016101a8565b6102c26102bd366004610f6e565b610872565b6040516101a89190610fad565b61029b606481565b6102436203f48081565b6102ef61025f366004610fe2565b604080516001600160e01b03199093168352600f9190910b6020830152016101a8565b6101c46101bf366004611063565b61036261032e366004610ca9565b5f60208190529081526040902060018101546002820154600383015460048401546005909401549293919290919060ff1685565b6040805195865260208601949094529284019190915260608301521515608082015260a0016101a8565b610473604080516101c0810182525f80825260208201819052918101829052606081018290526080810182905260a0810182905260c0810182905260e08101829052610100810182905261012081018290526101408101829052610160810182905261018081018290526101a081019190915250604080516101c08101825260018082525f60208301819052928201839052606082018390526080820183905260a0820183905260c082015260e08101829052610100810182905261012081018290526101408101829052610160810182905261018081018290526101a081019190915290565b6040516101a891906110bd565b6102436103e881565b6104b07f000000000000000000000000000000000000000000000000000000000000000081565b6040516001600160a01b0390911681526020016101a8565b6101c46104d63660046111de565b6108d0565b5f604051630a85dc2960e01b815260040160405180910390fd5b5f818152602081815260409182902080548351818402810184019094528084526060939283018282801561055057602002820191905f5260205f20905b81546001600160a01b03168152600190910190602001808311610532575b50505050509050919050565b5f808080610579610572368a90038a018a611240565b60a0902090565b5f818152602081815260408220805460018101825581845291832090910180546001600160a01b03191632908117909155838352600290910180549394509092916105c3836112ee565b91905055505f808960200135126105de5788602001356105eb565b6105eb60208a0135611306565b90505f6127106105fc606484611320565b610606919061134b565b90505f61061660208c018c61136b565b61062f5761062a60408d0160208e0161138d565b61063c565b61063c60208d018d61138d565b604051630b0d9c0960e01b81526001600160a01b038083166004830152306024830152604482018590529192507f000000000000000000000000000000000000000000000000000000000000000090911690630b0d9c09906064015f604051808303815f87803b1580156106ae575f80fd5b505af11580156106c0573d5f803e3d5ffd5b506106e992508391506106d8905060208f018f61138d565b6001600160a01b0390811691161490565b15610719575f858152602081905260408120600301805484929061070e9084906113a8565b9091555061073f9050565b5f85815260208190526040812060040180548492906107399084906113a8565b90915550505b5f85815260208190526040812060010154608084901b9190610765906203f480906113a8565b4210158061078557505f878152602081905260409020600201546103e811155b90508080156107a55750600a610799610984565b6107a391906113bb565b155b156107b4576107b4878f6109da565b5f7f00000000000000000000000000000000000000000000000000000000000000006001600160a01b0316631d268c406040518163ffffffff1660e01b8152600401602060405180830381865afa158015610811573d5f803e3d5ffd5b505050506040513d601f19601f8201168201806040525081019061083591906113ce565b6315d7892d60e21b9b5092995091975050505050505050955095509592505050565b5f80604051630a85dc2960e01b815260040160405180910390fd5b6060336001600160a01b037f000000000000000000000000000000000000000000000000000000000000000016146108bd5760405163570c108560e11b815260040160405180910390fd5b6108c78383610bda565b90505b92915050565b5f6108e160608401604085016113e9565b62ffffff166280000014610908576040516315b3d69f60e31b815260040160405180910390fd5b5f61091b61057236869003860186611240565b5f818152602081815260409182902060058101805460ff191660019081179091554291015590518281529192507f7a0284cf95802b2e2cda110caf79e118577e7c480ea6203f8f9475e4266e7730910160405180910390a150636e4c1aa760e11b949350505050565b5f4244336040516020016109bd93929190928352602083019190915260601b6bffffffffffffffffffffffff1916604082015260540190565b604051602081830303815290604052805190602001205f1c905090565b5f8281526020819052604081208054909103610a09576040516303cd03fb60e11b815260040160405180910390fd5b80545f90610a15610984565b610a1f91906113bb565b90505f825f018281548110610a3657610a36611404565b5f918252602082200154600385015460048601546001600160a01b03909216935091610a63908690610c73565b5f60028601819055600386018190556004860155426001860155610a8a602087018761138d565b60405163a9059cbb60e01b81526001600160a01b03858116600483015260248201859052919091169063a9059cbb906044016020604051808303815f875af1158015610ad8573d5f803e3d5ffd5b505050506040513d601f19601f82011682018060405250810190610afc9190611418565b50610b0d604087016020880161138d565b60405163a9059cbb60e01b81526001600160a01b03858116600483015260248201849052919091169063a9059cbb906044016020604051808303815f875af1158015610b5b573d5f803e3d5ffd5b505050506040513d601f19601f82011682018060405250810190610b7f9190611418565b50604080516001600160a01b038516815260208101849052908101829052606081018890527fd22f17d475e8d44d9c390467cc2ad6c56bf50370003f4436c889450611a35c8e9060800160405180910390a150505050505050565b60605f80306001600160a01b03168585604051610bf8929190611433565b5f604051808303815f865af19150503d805f8114610c31576040519150601f19603f3d011682016040523d82523d5f602084013e610c36565b606091505b50915091508115610c4a5791506108ca9050565b80515f03610c6b576040516314815f4760e31b815260040160405180910390fd5b805160208201fd5b5080545f8255905f5260205f2090810190610c8e9190610c91565b50565b5b80821115610ca5575f8155600101610c92565b5090565b5f60208284031215610cb9575f80fd5b5035919050565b6001600160a01b0381168114610c8e575f80fd5b8035610cdf81610cc0565b919050565b5f60a08284031215610cf4575f80fd5b50919050565b5f60808284031215610cf4575f80fd5b5f8083601f840112610d1a575f80fd5b50813567ffffffffffffffff811115610d31575f80fd5b602083019150836020828501011115610d48575f80fd5b9250929050565b5f805f805f6101608688031215610d64575f80fd5b8535610d6f81610cc0565b9450610d7e8760208801610ce4565b9350610d8d8760c08801610cfa565b925061014086013567ffffffffffffffff811115610da9575f80fd5b610db588828901610d0a565b969995985093965092949392505050565b602080825282518282018190525f918401906040840190835b81811015610e065783516001600160a01b0316835260209384019390920191600101610ddf565b509095945050505050565b5f60608284031215610cf4575f80fd5b5f805f805f6101408688031215610e36575f80fd5b8535610e4181610cc0565b9450610e508760208801610ce4565b9350610e5f8760c08801610e11565b925061012086013567ffffffffffffffff811115610da9575f80fd5b5f805f805f805f6101a0888a031215610e92575f80fd5b8735610e9d81610cc0565b9650610eac8960208a01610ce4565b9550610ebb8960c08a01610cfa565b94506101408801359350610160880135925061018088013567ffffffffffffffff811115610ee7575f80fd5b610ef38a828b01610d0a565b989b979a50959850939692959293505050565b8035600281900b8114610cdf575f80fd5b5f805f806101008587031215610f2b575f80fd5b8435610f3681610cc0565b9350610f458660208701610ce4565b925060c0850135610f5581610cc0565b9150610f6360e08601610f06565b905092959194509250565b5f8060208385031215610f7f575f80fd5b823567ffffffffffffffff811115610f95575f80fd5b610fa185828601610d0a565b90969095509350505050565b602081525f82518060208401528060208501604085015e5f604082850101526040601f19601f83011684010191505092915050565b5f805f805f806101608789031215610ff8575f80fd5b863561100381610cc0565b95506110128860208901610ce4565b94506110218860c08901610e11565b9350610120870135925061014087013567ffffffffffffffff811115611045575f80fd5b61105189828a01610d0a565b979a9699509497509295939492505050565b5f805f805f806101208789031215611079575f80fd5b863561108481610cc0565b95506110938860208901610ce4565b945060c0870135935060e0870135925061010087013567ffffffffffffffff811115611045575f80fd5b8151151581526101c0810160208301516110db602084018215159052565b5060408301516110ef604084018215159052565b506060830151611103606084018215159052565b506080830151611117608084018215159052565b5060a083015161112b60a084018215159052565b5060c083015161113f60c084018215159052565b5060e083015161115360e084018215159052565b5061010083015161116961010084018215159052565b5061012083015161117f61012084018215159052565b5061014083015161119561014084018215159052565b506101608301516111ab61016084018215159052565b506101808301516111c161018084018215159052565b506101a08301516111d76101a084018215159052565b5092915050565b5f805f60e084860312156111f0575f80fd5b83356111fb81610cc0565b925061120a8560208601610ce4565b915060c084013561121a81610cc0565b809150509250925092565b62ffffff81168114610c8e575f80fd5b8035610cdf81611225565b5f60a0828403128015611251575f80fd5b5060405160a0810167ffffffffffffffff8111828210171561128157634e487b7160e01b5f52604160045260245ffd5b60405261128d83610cd4565b815261129b60208401610cd4565b60208201526112ac60408401611235565b60408201526112bd60608401610f06565b60608201526112ce60808401610cd4565b60808201529392505050565b634e487b7160e01b5f52601160045260245ffd5b5f600182016112ff576112ff6112da565b5060010190565b5f600160ff1b820161131a5761131a6112da565b505f0390565b80820281158282048414176108ca576108ca6112da565b634e487b7160e01b5f52601260045260245ffd5b5f8261135957611359611337565b500490565b8015158114610c8e575f80fd5b5f6020828403121561137b575f80fd5b81356113868161135e565b9392505050565b5f6020828403121561139d575f80fd5b813561138681610cc0565b808201808211156108ca576108ca6112da565b5f826113c9576113c9611337565b500690565b5f602082840312156113de575f80fd5b815161138681611225565b5f602082840312156113f9575f80fd5b813561138681611225565b634e487b7160e01b5f52603260045260245ffd5b5f60208284031215611428575f80fd5b81516113868161135e565b818382375f910190815291905056fea2646970667358221220c8172b83a3b6133ed0234e696a4c216e53bb4ff0d613deee1fa0a276da37da2e64736f6c634300081a0033000000000000000000000000498581ff718922c3f8e6a244956af099b2652b2b0000000000000000000000002957a4c3f584efeaf086aafd7bd4141016652a10",
        "nonce": "0xec",
        "chainId": "0x2105"
      },
      "additionalContracts": [],
      "isFixedGasLimit": false
    },
    {
      "hash": "0x935f7a06ff487c3a2d557d02b550ec502a83a8b4ff683afce0e09f3a92b1d685",
      "transactionType": "CALL",
      "contractName": "MockERC20",
      "contractAddress": "0x5aadfb43ef8daf45dd80f4676345b7676f1d70e3",
      "function": "approve(address,uint256)",
      "arguments": [
        "0x000000000022D473030F116dDEE9F6B43aC78BA3",
        "115792089237316195423570985008687907853269984665640564039457584007913129639935"
      ],
      "transaction": {
        "from": "0x21af1185734d213d45c6236146fb81e2b0e8b821",
        "to": "0x5aadfb43ef8daf45dd80f4676345b7676f1d70e3",
        "value": "0x0",
        "input": "0x095ea7b3000000000000000000000000000000000022d473030f116ddee9f6b43ac78ba3ffffffffffffffffffffffffffffffffffffffffffffffffffffffffffffffff",
        "nonce": "0xed",
        "chainId": "0x2105"
      },
      "additionalContracts": [],
      "isFixedGasLimit": false
    },
    {
      "hash": "0xcda9f9fc755a846be66ec61dfa438c6a5a677dd405b0094477141943c97fd707",
      "transactionType": "CALL",
      "contractName": null,
      "contractAddress": "0x000000000022d473030f116ddee9f6b43ac78ba3",
      "function": "approve(address,address,uint160,uint48)",
      "arguments": [
        "0x5aAdFB43eF8dAF45DD80F4676345b7676f1D70e3",
        "0x7C5f5A4bBd8fD63184577525326123B519429bDc",
        "1461501637330902918203684832716283019655932542975",
        "281474976710655"
      ],
      "transaction": {
        "from": "0x21af1185734d213d45c6236146fb81e2b0e8b821",
        "to": "0x000000000022d473030f116ddee9f6b43ac78ba3",
        "value": "0x0",
        "input": "0x87517c450000000000000000000000005aadfb43ef8daf45dd80f4676345b7676f1d70e30000000000000000000000007c5f5a4bbd8fd63184577525326123b519429bdc000000000000000000000000ffffffffffffffffffffffffffffffffffffffff0000000000000000000000000000000000000000000000000000ffffffffffff",
        "nonce": "0xee",
        "chainId": "0x2105"
      },
      "additionalContracts": [],
      "isFixedGasLimit": false
    },
    {
      "hash": "0x51256a692e73d3ce975758ae44e8b15c4a6dafaa90e59896ab86267c08c52eb4",
      "transactionType": "CALL",
      "contractName": "MockERC20",
      "contractAddress": "0xf13d09ed3cbdd1c930d4de74808de1f33b6b3d4f",
      "function": "approve(address,uint256)",
      "arguments": [
        "0x000000000022D473030F116dDEE9F6B43aC78BA3",
        "115792089237316195423570985008687907853269984665640564039457584007913129639935"
      ],
      "transaction": {
        "from": "0x21af1185734d213d45c6236146fb81e2b0e8b821",
        "to": "0xf13d09ed3cbdd1c930d4de74808de1f33b6b3d4f",
        "value": "0x0",
        "input": "0x095ea7b3000000000000000000000000000000000022d473030f116ddee9f6b43ac78ba3ffffffffffffffffffffffffffffffffffffffffffffffffffffffffffffffff",
        "nonce": "0xef",
        "chainId": "0x2105"
      },
      "additionalContracts": [],
      "isFixedGasLimit": false
    },
    {
      "hash": "0xd85f14f23c7ad7214285fadac1d61ed63f74d8ab5eb4d56670b473c89211b6bf",
      "transactionType": "CALL",
      "contractName": null,
      "contractAddress": "0x000000000022d473030f116ddee9f6b43ac78ba3",
      "function": "approve(address,address,uint160,uint48)",
      "arguments": [
        "0xf13D09eD3cbdD1C930d4de74808de1f33B6b3D4f",
        "0x7C5f5A4bBd8fD63184577525326123B519429bDc",
        "1461501637330902918203684832716283019655932542975",
        "281474976710655"
      ],
      "transaction": {
        "from": "0x21af1185734d213d45c6236146fb81e2b0e8b821",
        "to": "0x000000000022d473030f116ddee9f6b43ac78ba3",
        "value": "0x0",
        "input": "0x87517c45000000000000000000000000f13d09ed3cbdd1c930d4de74808de1f33b6b3d4f0000000000000000000000007c5f5a4bbd8fd63184577525326123b519429bdc000000000000000000000000ffffffffffffffffffffffffffffffffffffffff0000000000000000000000000000000000000000000000000000ffffffffffff",
        "nonce": "0xf0",
        "chainId": "0x2105"
      },
      "additionalContracts": [],
      "isFixedGasLimit": false
    },
    {
      "hash": null,
      "transactionType": "CALL",
      "contractName": "PositionManager",
      "contractAddress": "0x7c5f5a4bbd8fd63184577525326123b519429bdc",
      "function": "multicall(bytes[])",
      "arguments": [
        "[0xf70204050000000000000000000000005aadfb43ef8daf45dd80f4676345b7676f1d70e3000000000000000000000000f13d09ed3cbdd1c930d4de74808de1f33b6b3d4f0000000000000000000000000000000000000000000000000000000000800000000000000000000000000000000000000000000000000000000000000000003c000000000000000000000000f98482b71c099e78f30b6af7e0320480a5b7a080000000000000000000000000000000000000000100000000000000000000000000000000000000000000000000000000000000000000000000000000000000e00000000000000000000000000000000000000000000000000000000000000000, 0xdd46508f00000000000000000000000000000000000000000000000000000000000000400000000000000000000000000000000000000000000000000000000067acc1590000000000000000000000000000000000000000000000000000000000000300000000000000000000000000000000000000000000000000000000000000004000000000000000000000000000000000000000000000000000000000000000800000000000000000000000000000000000000000000000000000000000000002020d00000000000000000000000000000000000000000000000000000000000000000000000000000000000000000000000000000000000000000000000000020000000000000000000000000000000000000000000000000000000000000040000000000000000000000000000000000000000000000000000000000000020000000000000000000000000000000000000000000000000000000000000001a00000000000000000000000005aadfb43ef8daf45dd80f4676345b7676f1d70e3000000000000000000000000f13d09ed3cbdd1c930d4de74808de1f33b6b3d4f0000000000000000000000000000000000000000000000000000000000800000000000000000000000000000000000000000000000000000000000000000003c000000000000000000000000f98482b71c099e78f30b6af7e0320480a5b7a080fffffffffffffffffffffffffffffffffffffffffffffffffffffffffff2764c00000000000000000000000000000000000000000000000000000000000d89b400000000000000000000000000000000000000000000003635c9adc5dea0003600000000000000000000000000000000000000000000003635c9adc5dea0000100000000000000000000000000000000000000000000003635c9adc5dea000010000000000000000000000009f7cf1d1f558e57ef88a59ac3d47214ef25b6a060000000000000000000000000000000000000000000000000000000000000180000000000000000000000000000000000000000000000000000000000000000000000000000000000000000000000000000000000000000000000000000000400000000000000000000000005aadfb43ef8daf45dd80f4676345b7676f1d70e3000000000000000000000000f13d09ed3cbdd1c930d4de74808de1f33b6b3d4f]"
      ],
      "transaction": {
        "from": "0x21af1185734d213d45c6236146fb81e2b0e8b821",
        "to": "0x7c5f5a4bbd8fd63184577525326123b519429bdc",
        "value": "0x0",
        "input": "0xac9650d800000000000000000000000000000000000000000000000000000000000000200000000000000000000000000000000000000000000000000000000000000002000000000000000000000000000000000000000000000000000000000000004000000000000000000000000000000000000000000000000000000000000001800000000000000000000000000000000000000000000000000000000000000104f70204050000000000000000000000005aadfb43ef8daf45dd80f4676345b7676f1d70e3000000000000000000000000f13d09ed3cbdd1c930d4de74808de1f33b6b3d4f0000000000000000000000000000000000000000000000000000000000800000000000000000000000000000000000000000000000000000000000000000003c000000000000000000000000f98482b71c099e78f30b6af7e0320480a5b7a080000000000000000000000000000000000000000100000000000000000000000000000000000000000000000000000000000000000000000000000000000000e00000000000000000000000000000000000000000000000000000000000000000000000000000000000000000000000000000000000000000000000000000000000000000000000000000000000000000000000000000000000000364dd46508f00000000000000000000000000000000000000000000000000000000000000400000000000000000000000000000000000000000000000000000000067acc1590000000000000000000000000000000000000000000000000000000000000300000000000000000000000000000000000000000000000000000000000000004000000000000000000000000000000000000000000000000000000000000000800000000000000000000000000000000000000000000000000000000000000002020d00000000000000000000000000000000000000000000000000000000000000000000000000000000000000000000000000000000000000000000000000020000000000000000000000000000000000000000000000000000000000000040000000000000000000000000000000000000000000000000000000000000020000000000000000000000000000000000000000000000000000000000000001a00000000000000000000000005aadfb43ef8daf45dd80f4676345b7676f1d70e3000000000000000000000000f13d09ed3cbdd1c930d4de74808de1f33b6b3d4f0000000000000000000000000000000000000000000000000000000000800000000000000000000000000000000000000000000000000000000000000000003c000000000000000000000000f98482b71c099e78f30b6af7e0320480a5b7a080fffffffffffffffffffffffffffffffffffffffffffffffffffffffffff2764c00000000000000000000000000000000000000000000000000000000000d89b400000000000000000000000000000000000000000000003635c9adc5dea0003600000000000000000000000000000000000000000000003635c9adc5dea0000100000000000000000000000000000000000000000000003635c9adc5dea000010000000000000000000000009f7cf1d1f558e57ef88a59ac3d47214ef25b6a060000000000000000000000000000000000000000000000000000000000000180000000000000000000000000000000000000000000000000000000000000000000000000000000000000000000000000000000000000000000000000000000400000000000000000000000005aadfb43ef8daf45dd80f4676345b7676f1d70e3000000000000000000000000f13d09ed3cbdd1c930d4de74808de1f33b6b3d4f00000000000000000000000000000000000000000000000000000000",
        "nonce": "0xf1",
        "chainId": "0x2105"
      },
      "additionalContracts": [],
      "isFixedGasLimit": false
    }
  ],
  "receipts": [
    {
      "status": "0x1",
      "cumulativeGasUsed": "0x10adc6d",
      "logs": [],
      "logsBloom": "0x00000000000000000000000000000000000000000000000000000000000000000000000000000000000000000000000000000000000000000000000000000000000000000000000000000000000000000000000000000000000000000000000000000000000000000000000000000000000000000000000000000000000000000000000000000000000000000000000000000000000000000000000000000000000000000000000000000000000000000000000000000000000000000000000000000000000000000000000000000000000000000000000000000000000000000000000000000000000000000000000000000000000000000000000000000000",
      "type": "0x2",
      "transactionHash": "0xd86f800f60ebfa01128f8fc8d7f39f25ce9ba0a30659887088cd44ab465ba2c5",
      "transactionIndex": "0x4a",
      "blockHash": "0x4cfc8ab145b7d5c2e05bedb538dc9f6153ca7f47c24b4ba91a4b0230bb267fb0",
      "blockNumber": "0x1913223",
      "gasUsed": "0x22be2",
      "effectiveGasPrice": "0x92e902",
      "from": "0x21af1185734d213d45c6236146fb81e2b0e8b821",
      "to": null,
      "contractAddress": "0x2957a4c3f584efeaf086aafd7bd4141016652a10",
      "l1BaseFeeScalar": "0x8dd",
      "l1BlobBaseFee": "0x384cf5f4e",
      "l1BlobBaseFeeScalar": "0x101c12",
      "l1Fee": "0x5826897b401",
      "l1GasPrice": "0x666336c4",
      "l1GasUsed": "0x17a2"
    },
    {
      "status": "0x1",
      "cumulativeGasUsed": "0x1eb1edb",
      "logs": [],
      "logsBloom": "0x00000000000000000000000000000000000000000000000000000000000000000000000000000000000000000000000000000000000000000000000000000000000000000000000000000000000000000000000000000000000000000000000000000000000000000000000000000000000000000000000000000000000000000000000000000000000000000000000000000000000000000000000000000000000000000000000000000000000000000000000000000000000000000000000000000000000000000000000000000000000000000000000000000000000000000000000000000000000000000000000000000000000000000000000000000000",
      "type": "0x2",
      "transactionHash": "0xc4a1cc2a5305cb212295d1712a113fd721a57c58563e58390e16543f6dd746fb",
      "transactionIndex": "0xa6",
      "blockHash": "0x83aaf33c5da187019bd7bb247967c1f726927b2132c1bc6ec385d09bf47ae210",
      "blockNumber": "0x1913225",
      "gasUsed": "0x1259b8",
      "effectiveGasPrice": "0x93b011",
      "from": "0x21af1185734d213d45c6236146fb81e2b0e8b821",
      "to": "0x4e59b44847b379578588920ca78fbf26c0b4956c",
      "contractAddress": null,
      "l1BaseFeeScalar": "0x8dd",
      "l1BlobBaseFee": "0x3f5694c1f",
      "l1BlobBaseFeeScalar": "0x101c12",
      "l1Fee": "0x39393c3e359b",
      "l1GasPrice": "0x6ad1ecc1",
      "l1GasUsed": "0xda47"
    },
    {
      "status": "0x1",
      "cumulativeGasUsed": "0x180c5a3",
      "logs": [],
      "logsBloom": "0x00000000000000000000000000000000000000000000000000000000000000000000000000000000000000000000000000000000000000000000000000000000000000000000000000000000000000000000000000000000000000000000000000000000000000000000000000000000000000000000000000000000000000000000000000000000000000000000000000000000000000000000000000000000000000000000000000000000000000000000000000000000000000000000000000000000000000000000000000000000000000000000000000000000000000000000000000000000000000000000000000000000000000000000000000000000",
      "type": "0x2",
      "transactionHash": "0x935f7a06ff487c3a2d557d02b550ec502a83a8b4ff683afce0e09f3a92b1d685",
      "transactionIndex": "0x75",
      "blockHash": "0x47074a202c1e4b15aa4eda042df6905db62ab4df9cec624440cee37cc2b01662",
      "blockNumber": "0x1913227",
      "gasUsed": "0x557c",
      "effectiveGasPrice": "0x9478bb",
      "from": "0x21af1185734d213d45c6236146fb81e2b0e8b821",
      "to": "0x5aadfb43ef8daf45dd80f4676345b7676f1d70e3",
      "contractAddress": null,
      "l1BaseFeeScalar": "0x8dd",
      "l1BlobBaseFee": "0x3f5694c1f",
      "l1BlobBaseFeeScalar": "0x101c12",
      "l1Fee": "0x1a373ea553b",
      "l1GasPrice": "0x6ad1ecc1",
      "l1GasUsed": "0x640"
    },
    {
      "status": "0x1",
      "cumulativeGasUsed": "0xd3a405",
      "logs": [
        {
          "address": "0x000000000022d473030f116ddee9f6b43ac78ba3",
          "topics": [
            "0xda9fa7c1b00402c17d0161b249b1ab8bbec047c5a52207b9c112deffd817036b",
            "0x00000000000000000000000021af1185734d213d45c6236146fb81e2b0e8b821",
            "0x0000000000000000000000005aadfb43ef8daf45dd80f4676345b7676f1d70e3",
            "0x0000000000000000000000007c5f5a4bbd8fd63184577525326123b519429bdc"
          ],
          "data": "0x000000000000000000000000ffffffffffffffffffffffffffffffffffffffff0000000000000000000000000000000000000000000000000000ffffffffffff",
          "blockHash": "0x5237c0f9991de70d218e4203d444fb9b5cb68c1ed952b8370b6a3bfbef960c43",
          "blockNumber": "0x1913229",
          "transactionHash": "0xcda9f9fc755a846be66ec61dfa438c6a5a677dd405b0094477141943c97fd707",
          "transactionIndex": "0x39",
          "logIndex": "0xcc",
          "removed": false
        }
      ],
      "logsBloom": "0x00010000000000000000000000080000000000000000000000000002000000000000000000000000000000000000000000000000000000000000000000082000000000000000000000000000000000000000000000000000000000000000000000000000000000000000000000000000000000000000000000004000000000000020000000000000010000000000000000000000000000000000000000000000000000000000001000000000000000000000000000000000000080080000000200000000000000000000000000000000000000000000000040000000000000000000000000000000000000000000000000000000002000000000000000000400",
      "type": "0x2",
      "transactionHash": "0xcda9f9fc755a846be66ec61dfa438c6a5a677dd405b0094477141943c97fd707",
      "transactionIndex": "0x39",
      "blockHash": "0x5237c0f9991de70d218e4203d444fb9b5cb68c1ed952b8370b6a3bfbef960c43",
      "blockNumber": "0x1913229",
      "gasUsed": "0xbaca",
      "effectiveGasPrice": "0x9542b1",
      "from": "0x21af1185734d213d45c6236146fb81e2b0e8b821",
      "to": "0x000000000022d473030f116ddee9f6b43ac78ba3",
      "contractAddress": null,
      "l1BaseFeeScalar": "0x8dd",
      "l1BlobBaseFee": "0x3f5694c1f",
      "l1BlobBaseFeeScalar": "0x101c12",
      "l1Fee": "0x1d2fa7d4254",
      "l1GasPrice": "0x6ad1ecc1",
      "l1GasUsed": "0x6f5"
    },
    {
      "status": "0x1",
      "cumulativeGasUsed": "0x200060e",
      "logs": [],
      "logsBloom": "0x00000000000000000000000000000000000000000000000000000000000000000000000000000000000000000000000000000000000000000000000000000000000000000000000000000000000000000000000000000000000000000000000000000000000000000000000000000000000000000000000000000000000000000000000000000000000000000000000000000000000000000000000000000000000000000000000000000000000000000000000000000000000000000000000000000000000000000000000000000000000000000000000000000000000000000000000000000000000000000000000000000000000000000000000000000000",
      "type": "0x2",
      "transactionHash": "0x51256a692e73d3ce975758ae44e8b15c4a6dafaa90e59896ab86267c08c52eb4",
      "transactionIndex": "0x46",
      "blockHash": "0x86df8e33680585524945718fe54256c1a4f1c61adcf3fccb5ddc2a114ba06192",
      "blockNumber": "0x191322b",
      "gasUsed": "0x557c",
      "effectiveGasPrice": "0x95a21a",
      "from": "0x21af1185734d213d45c6236146fb81e2b0e8b821",
      "to": "0xf13d09ed3cbdd1c930d4de74808de1f33b6b3d4f",
      "contractAddress": null,
      "l1BaseFeeScalar": "0x8dd",
      "l1BlobBaseFee": "0x384cf5f4e",
      "l1BlobBaseFeeScalar": "0x101c12",
      "l1Fee": "0x174fb718db8",
      "l1GasPrice": "0x687d87d5",
      "l1GasUsed": "0x640"
    },
    {
      "status": "0x1",
      "cumulativeGasUsed": "0xd7cf47",
      "logs": [
        {
          "address": "0x000000000022d473030f116ddee9f6b43ac78ba3",
          "topics": [
            "0xda9fa7c1b00402c17d0161b249b1ab8bbec047c5a52207b9c112deffd817036b",
            "0x00000000000000000000000021af1185734d213d45c6236146fb81e2b0e8b821",
            "0x000000000000000000000000f13d09ed3cbdd1c930d4de74808de1f33b6b3d4f",
            "0x0000000000000000000000007c5f5a4bbd8fd63184577525326123b519429bdc"
          ],
          "data": "0x000000000000000000000000ffffffffffffffffffffffffffffffffffffffff0000000000000000000000000000000000000000000000000000ffffffffffff",
          "blockHash": "0x9fa77fbd4a51ab17a4597657ade7c2b59176c206c3bc982ad7dcd95fb3ff2481",
          "blockNumber": "0x191322d",
          "transactionHash": "0xd85f14f23c7ad7214285fadac1d61ed63f74d8ab5eb4d56670b473c89211b6bf",
          "transactionIndex": "0x35",
          "logIndex": "0x91",
          "removed": false
        }
      ],
      "logsBloom": "0x00010000000000000000000000080000000000000000000000000000000000000000000000000000000000000000000000000000000000000000000000082000000000000000000000000000000000000000000000000000000000000000000000000000000000000000000000000000000000000000000000004000000000000020000000000000000000000000000000000000000000000000000000000000000000000000000000000000000000000000000000000000000080880000000200000000000000000000000000000000000000000000000040000000000000000000000000000100000000004000000000000000002000000000000000000400",
      "type": "0x2",
      "transactionHash": "0xd85f14f23c7ad7214285fadac1d61ed63f74d8ab5eb4d56670b473c89211b6bf",
      "transactionIndex": "0x35",
      "blockHash": "0x9fa77fbd4a51ab17a4597657ade7c2b59176c206c3bc982ad7dcd95fb3ff2481",
      "blockNumber": "0x191322d",
      "gasUsed": "0xbaca",
      "effectiveGasPrice": "0x95ac4b",
      "from": "0x21af1185734d213d45c6236146fb81e2b0e8b821",
      "to": "0x000000000022d473030f116ddee9f6b43ac78ba3",
      "contractAddress": null,
      "l1BaseFeeScalar": "0x8dd",
      "l1BlobBaseFee": "0x384cf5f4e",
      "l1BlobBaseFeeScalar": "0x101c12",
      "l1Fee": "0x19f3e19833d",
      "l1GasPrice": "0x687d87d5",
      "l1GasUsed": "0x6f5"
    }
  ],
  "libraries": [],
  "pending": [],
  "returns": {},
  "timestamp": 1739374911,
  "chain": 8453,
  "commit": "c377567"
}